:020000002100DD
:0A000300859030B100F100F1503299
:1001000075A0007590FF74387150740C71507401B3
:0A0110007150D288D2AFD2A880FE51
:090150007E1E7FFFDFFEDEFA22B5
:0C020000EA9003009391000AB400F5227C
:0E03000054656D7065726174757265203A0007
:0B035000F5A0C2B0D2B13150C2B12202
:0B040000F5A0D2B0D2B13150C2B12241
:09050000E530B150D1008A31222E
:0505500075F014A42267
:10060000F8A9F07B007A64C37C007D0075F00005DA
:10061000F0EA33FAEB33FB50F6EB13FBEA13FAC3C1
:1006200089078806E89AF8E99BF95004A907A80603
:0F063000B3EC33FCED33FDD5F0DFAB05AA0422AC
:0C070000E53175F00A84F53285F03322F3
:100750007A00510074C77150E53224309100E533BE
:1007600024309100745E9100744391007480715044
:010770002266
:00000001FF
